:020000040020DA
:10000000D84F0020D1032000270121002501210025
:10001000250121002501210025012100000000000B
:100020000000000000000000000000005B1C210038
:100030002501210000000000791C21006508210035
:10004000770821007D08210083082100890821000C
:10005000000000006B08210071082100250121002B
:100060002501210000000000000000000000000049
:100070000000000000000000250121000000000039
:1000800000000000000000002501210025012100E2
:100090002501210025012100250121002501210044
:1000A0002501210025012100250121002501210034
:1000B0002501210025012100250121002501210024
:1000C0002501210025012100250121002501210014
:1000D00025012100000000000000000000000000D9
:1000E0000000000000000000000000000000000010
:1000F0000000000000000000894A2000994A20000A
:1001000000000000000000000000000000000000EF
:1001100000000000000000000000000000000000DF
:1001200000000000000000000000000000000000CF
:1001300000000000000000000000000000000000BF
:1001400000000000000000000000000000000000AF
:10015000000000000000000000000000000000009F
:10016000000000000000000000000000000000008F
:10017000000000000000000000000000000000007F
:10018000000000000000000000000000000000006F
:10019000000000000000000000000000000000005F
:1001A000000000000000000000000000000000004F
:1001B000000000000000000000000000000000003F
:1001C000000000000000000000000000000000002F
:1001D000000000000000000000000000000000001F
:1001E000000000000000000000000000000000000F
:1001F00000000000000000000000000000000000FF
:1002000000000000000000000000000000000000EE
:1002100000000000000000000000000000000000DE
:1002200000000000000000000000000000000000CE
:1002300000000000000000000000000000000000BE
:1002400000000000000000000000000000000000AE
:10025000000000000000000000000000000000009E
:10026000000000000000000000000000000000008E
:10027000250121006D49200091492000693F20009F
:10028000F94B2000493A2000250121000000000020
:100290002DE9F34107468846022001A916461D466E
:1002A00003F096F9044608B141481AE0BDF804008D
:1002B00040EA082040EA872040F4805040EA463275
:1002C00092B2ADF80420C2F3C0222A700A2003F0D3
:1002D00055FB0220BDF8041003F0A6F9044620B136
:1002E0003448214604F0CCFF57E00A2003F046FBD7
:1002F000022001A903F06CF9044608B12E48F0E78A
:100300000A2003F03BFB20460DF1060103F060F9E3
:10031000044608B12948E4E7BDF806000EF01CFBCE
:100320000022274B0EF08EFB1FA3D3E900230EF013
:1003300089FB0022234B0EF0D1F9089BC3E9000191
:1003400001200DF1060103F043F9044608B11E48EF
:10035000C7E7BDF806000EF0E5FE0EF01FFB002219
:10036000174B0EF06FFB0022184B0EF06BFB0022B8
:10037000164B06460F460EF0F5FD48B93046394695
:10038000002200230EF0D0FD20B10026002701E05E
:100390000E4F0026099BC3E90067204602B0BDE866
:1003A000F08100BFAFF300800000000000A06440B7
:1003B000CA322100F0322100153321003A332100E6
:1003C0000000F03E000044405F332100000059402F
:1003D00008B5094BFF221A600848094A4824E36916
:1003E0000849121A98470848084AA3690021121AB6
:1003F000984702F0E5FCFEE7B4200D4040000020E5
:10040000C70B00204C3B2100C80B0020D347002025
:1004100008B510F04DF9034B186006F0CBFB024B0A
:10042000188008BD440F002024270020024B1888A4
:10043000013080B21880704724270020F7B50446A9
:1004400001232160037100230B700E4601680079BF
:100450000A7842EA80120A702068627901781201F3
:1004600002F030020A430270A27A206802F00F0103
:1004700002780A4302702268A179517022892168AA
:10048000120A8A7022682189D170A279002A00F0AC
:100490004081224652F80A5B0435A17A8B4205D28C
:1004A00012F8011F013305F8011BF6E7E37C03F0A6
:1004B000020303F0FF015BB194F86A30002100935E
:1004C0002A46012004F16B030FF0F4FE01210544DC
:1004D000E37C1A0708D5236C2A4600930320636C3B
:1004E0000FF0E8FE03210544E37CDB060AD594F80F
:1004F00024302A460093042004F125030FF0DAFE8D
:1005000004210544E37C9F0606D52A4605200023E6
:100510000FF0A0FE05210544E37C580606D52A46C7
:100520000620636E0FF096FE0621054494F9133001
:10053000002B07DA2A460720B4F850300FF08AFE65
:1005400007210544237DDA070AD5A36C2A460093C8
:100550002F2301930820E36C0FF0BCFE0821054413
:10056000237D1B070AD5E36D2A4600932F230193B1
:100570000B20236E0FF0AEFE0B210544237DDF061A
:1005800006D52A460C20A38B0FF064FE0C210544EF
:10059000237D580606D52A460E20236A0FF05AFE00
:1005A0000E21054494F91430002B0CDAD4F8943061
:1005B0002A460093262301930F20D4F898300FF099
:1005C00089FE0F210544637D9A0707D52A4611202D
:1005D000B4F868300FF03EFE11210544637DDB0660
:1005E0000AD5636D2A460093262301931420A36D38
:1005F0000FF070FE1421054494F91530002B1CDA1D
:10060000676F94F878303F010BB147F00807B4F8F2
:100610007A3000201B09421C5B0892B201D01046C0
:10062000F9E7002A18BF024602F00F0317202A46F6
:100630003B430FF00FFE17210544A37D1F071DD577
:10064000D4F8807094F884303F010BB147F008076C
:10065000B4F8863000201B09421C5B0892B201D01E
:100660001046F9E7002A18BF024602F00F031B20CC
:100670002A463B430FF0EEFD1B210544A37DD8061F
:1006800007D52A461C20D4F88C300FF0E3FD1C213E
:100690000544E37D1A0708D5236B2A4600932320DF
:1006A000636B0FF007FE2321054494F91730002BEC
:1006B00008DAA36B2A4600932720E36B0FF0FAFDBC
:1006C00027210544A37EDB0606D52A463C20D4F824
:1006D00090300FF0BFFD05442368EB1A3E2B11DC70
:1006E000B4F89E3013B1FF2305F8013B2846D4F837
:1006F000A010B4F89E200FF03BF9B4F89E00AD1B9B
:10070000284407E0044A054B0025256028461A6066
:1007100000E0042003B0F0BDE026210068040020C2
:100720002DE9F3410F46044600219046A4220FF024
:1007300083F927603B789B0923713A78012BC2F338
:10074000011262713E7806F00F05A5727A78A271E7
:10075000B978FA7842EA0122228101D0A24A02E065
:10076000082D03D9A14AA24B1A6039E13E1D31463A
:100770002A4604F10B000FF085F804F11300002164
:1007800008220FF059F92E44002507EB0800864295
:1007900080F02481337803F0F002F02A13D101367F
:1007A000BF1BB8441FFA88F8B8F1400F8ABF402336
:1007B000A4F89E80A4F89E30B4F89E300020C4F8BF
:1007C000A060F0540DE119090D2903F00F0303D1C6
:1007D0007178B21C0D310AE00E2901BFB178727830
:1007E00001F20D1101EB022114BF721CF21C0D2B42
:1007F00003D112F8013B0D3308E00E2B01BF5378F3
:1008000012F8026B03F20D1303EB0623D61886428F
:1008100000F2E6800D443C2D00F2E28004EBD501AD
:1008200005F0070E012000FA0EF091F813E00E2DEE
:1008300040EA0E00C8746CD029D8062D00F0A980BB
:1008400017D8032D00F084800AD8012D40F0BE8017
:10085000082B28BF082384F86A3004F16B006DE090
:10086000042D5CD0052D40F0B180012384F89C302C
:100870008BE7082D7DD06ED30B2D73D00C2D40F05F
:10088000A580104619460FF051FCA0837DE71B2D73
:1008900000F0858026D8112D49D009D80F2D40F0C1
:1008A00095802621009104F1980004F1940166E0FE
:1008B000142D67D0172D40F08980104619460FF08F
:1008C00035FCC0F3C00300F0070284F87830102331
:1008D0009340A4F87A3020F00F0393400009E367B7
:1008E000606752E7232D2ED008D81C2D6ED11046FC
:1008F00019460FF01BFCC4F88C0046E7272D22D0C8
:100900003C2D63D1104619460FF010FCC4F890003E
:100910003BE7104619460FF009FC206235E7082B2B
:1009200028BF082384F8243004F1250006E010468F
:1009300019460FF0FBFBA4F8680026E711461A469B
:100940000EF0A0FF21E72B4A294BA5201A6048E0B2
:100950006264236419E7104619460FF0E7FBA4F818
:10096000500012E72F21009104F1600004F15C01B6
:1009700005E02F21009104F14C0004F148010FF033
:10098000E0FB02E72621009104F1580004F1540134
:10099000F5E7104619460FF0C9FB6066F5E610460C
:1009A00019460FF0C3FBC0F3C00300F0070284F840
:1009B000843010239340A4F8863020F00F03934036
:1009C0000009C4F88830C4F88000DEE6EB077FF544
:1009D000DCAE094A064B82201A6002E0002000E0EB
:1009E000802002B0BDE8F0810F27210026272100DA
:1009F000680400204B27210072272100014B18605A
:100A0000704700BF480F002010B50388044633B17B
:100A1000B3F5B07F12D000230380032010BD0E4831
:100A20000E4900F051FE00F02FFA43F21630FFF7A6
:100A3000EFFC4FF4B0732380012010BD084B1B78EE
:100A40008B4204D1074B18680FF058FEF1E7882954
:100A5000EFD100F0BFFAECE7940400208E272100CC
:100A6000C9470020440F00200148002105F0C0BF05
:100A70006C0400202DE9F04F9C4D00232B709C4B03
:100A800087B01B788146990740F17881994E9A4B3F
:100A90009A4C316820461A88FFF742FEB046074656
:100AA0002870974E002840F00A81A379013B032B60
:100AB00000F2DF80934B944A1B7802F1080128333F
:100AC0002089D25A00F0EAF93060002800F0CB808B
:100AD00040234946ADF80A300397049705970FF075
:100AE000E2FD637923B9894802214522238905E083
:100AF000FFF79CFC03468548012145220FF025FCA9
:100B0000A27A1AB1814882490FF054FC04AB0093D9
:100B10007A4803A900220DF10A030FF02DFD40B120
:100B2000BDF80A30402B28BF4023ADF80A30049BA3
:100B30000593784BD3F800C0BCF1000F00F08F8014
:100B40003268724FDFF8B4B105A90091BDF80A30E0
:100B5000584639467832E047BA4600286ED02B789E
:100B6000002B6BD19BF816301A070DD597F906307C
:100B7000002B09DBBB7D1B0706D45C4BA1221A703E
:100B8000654A664B1A6059E094F91530059A002BB6
:100B900041DA049B9A4223D1BAF89E105B4F8A42F5
:100BA00005D38223BB7138465D490F2244E0BDF86E
:100BB0000A308A1A9A4294BF0022012203993846C9
:100BC0000FF0F3FC0499B7F89E30BDF80A205B1AC9
:100BD000D7F8A0E09A423846714428BF1A462BE065
:100BE00001320399BDF80A3006D1BAF89E209A4224
:100BF00094BF0022012200E00122444F38460FF04A
:100C0000D4FCBDF80A20BAF89E30934216D9384673
:100C1000D7F8A01010E08AB1013218BF01220021DC
:100C20003A4840230FF0C1FCBAF89E2037483F2ACB
:100C3000DAF8A01088BF40220FF022FD2B78002B9D
:100C40003DD13768314807F13A01FFF7F7FB80B231
:100C50003887002833D1254BC1221A702FE0A123F9
:100C60002B70304A02E0A3232F4A2B702B4B1A60C3
:100C700025E0636823F07F4323F0FF0313B9C32308
:100C80002B700CE06379032B09D11E4B1E4A1B7895
:100C900002F108002833D15A228900F039FA20895C
:100CA00000F08AF9306040B1076BD0F834A000F052
:100CB0001DF917B150461149B847002333602B780E
:100CC0000A4F306823B9002858D000F025F955E0C4
:100CD000C22B02D100F00AF950E000F007F93B788E
:100CE000C32B23D100233B70032124E0DA2F002003
:100CF000A4400020B0400020383E0020F80D002025
:100D00009C0E0020B83900204C3E0020A00E002090
:100D1000030E0020480F00209F27210068040020B8
:100D2000AF272100BF272100D0272100BF2B84BF80
:100D3000A0233B7002212A78238912480FF005FB7B
:100D4000114B124E1C6820460FF0A6F821460246B1
:100D50000C480FF095FC0E4BD8F800401B7821464C
:100D6000283308489F5BFFF769FB80B2009006F1CB
:100D7000080148463A4623460FF0A3FC287807B0FE
:100D8000BDE8F08FF80D0020680400204C3E0020E4
:100D9000B83900202DE9F3411F4603880446164662
:100DA000099D1BB1B3F5D07F32D04FE0314A0361CA
:100DB0001268C3604260304A1370304A1360304A90
:100DC0001370FFF733FB39462881BDF8202000F06F
:100DD00065F8A06000B331460FF065FCA368294AAE
:100DE0001A63A3685C63216921B12846002240236D
:100DF0000FF0DBFBA668284606F13A01FFF71EFB61
:100E00003087A06800F088F84FF4D073238021E089
:100E100082291FD1E06818B900232380022025E031
:100E2000DFF8588000230093134A41460FF0A4FBDB
:100E3000D8F8002023699A420ED10A9BE0689847AF
:100E40002369013323610C4B1B7853B900232380A2
:100E500003200BE0012009E0094A137801331370E5
:100E6000F1E7074B1B78032BF0D8AAE702B0BDE8E7
:100E7000F08100BF0C160020DC2F00204C0F00205A
:100E8000DB2F00209F062100024B1A68024B1A60DC
:100E9000704700BF0C160020540F0020F8B507461D
:100EA0000F480D4616460FF04FFE0446A8B12946DE
:100EB000002303760B4B87801B6805F11002C36289
:100EC00000F11A0351F8040B914243F8040BF9D1D5
:100ED0006685054821460FF005FE2046F8BD00BF97
:100EE0007C040020440F0020500F002010B5044661
:100EF00060B1083005F05AFC214605480FF0DEFDD0
:100F00002146BDE8104003480FF032BE10BD00BFBF
:100F1000500F00207C0400202DE9F3410446038F8C
:100F2000428D00F11A070093C06A394604F13A0372
:100F30000FF0C7FB94F83A50C5F3011575BB237E3B
:100F4000032B19D853B905F035FEC023B0FBF3F2DB
:100F500002FB130000F28110E06002E0E3685B0036
:100F6000E360134D134B2E681B6804F108002B60DF
:100F70000FF052FD2E6017E0266B3846618DD4F8D5
:100F8000348000F04DF82046FFF7B0FF66B14046D0
:100F90002946334602B0BDE8F0411847204602B06A
:100FA000BDE8F041FFF7A2BF02B0BDE8F08100BF8D
:100FB0000C160020540F002010B5044604480FF012
:100FC00073FD20B18388A34201D00068F9E710BD0A
:100FD000500F002010B509480FF066FD044664B1BB
:100FE00004F108000FF021FD28B1237E20460133D3
:100FF0002376FFF791FF2468F1E710BD500F002022
:1010000010B50446044821460FF0B2FD2146BDE864
:10101000104002480FF052BD880400204413002005
:10102000F8B506460C480F460FF03EFD0446002575
:101030007CB104F11C00314610220EF0F1FB30B9F6
:10104000A38DBB4203D12046FFF7DAFF01352468A8
:10105000EEE72846F8BD00BF441300202DE9F84311
:1010600007461348884691461E460FF01DFD04466C
:101070000025D4B104F11C00394610220EF0D0FB3B
:1010800088B9A38D43450ED194F82E30B3420AD1CE
:1010900004F12F00494632460EF0C2FB18B9204633
:1010A000FFF7AEFF01352468E3E72846BDE8F88383
:1010B000441300202DE9F84307461448894690461A
:1010C0000FF0F2FC04460025E4B14FB104F11C001E
:1010D000394610220EF0A4FB90B9A38D4B450FD1D9
:1010E000261D464508D030460EF0D6FE4146024643
:1010F00030460EF095FB18B92046FFF781FF013509
:101100002468E1E72846BDE8F88300BF44130020C7
:101110002DE9F04106460F480F4690460FF0C4FCFB
:101120000446002594B104F11C00314610220EF053
:1011300077FB48B9A38DBB4206D1238F434503D12A
:101140002046FFF75DFF01352468EBE72846BDE840
:10115000F08100BF441300202DE9F0414668DAB069
:10116000804630460D460EF097FE0446314603A8F1
:1011700013220EF009FF122C07DC35B103AB18194E
:101180002946C4F113020EF0FFFE0024234608A8EE
:10119000012145228DF81F400FF0D7F82346012288
:1011A000214631A80FF0D1F803A931A80FF077F943
:1011B00003A80EF071FE064631480FF075FC044698
:1011C000002C5AD0251D28460EF066FEB04208D0ED
:1011D00051DDB8F80830DB064DD5A3191B792F2B4C
:1011E00049D103A8294632460EF084FE002842D198
:1011F000FFF71CF904F11C01A28DFFF74FFE054615
:10120000002838D0A1690FF04EFAE16B142391FB4E
:10121000F3F203FB12130BB98DF82530AB8831A81C
:101220002387AB88D8F81070ADF8283000230093DE
:1012300008A9402305F17802B8479DF92630002B14
:1012400009DBE16B08A84B1CE3630FF08EF9E36B3D
:1012500023F07F43E36304F12F0194F82E2008A8C4
:101260000FF0A8F808A805F13A01FFF7E7F828877A
:101270002846FFF751FE2468A2E75AB0BDE8F08186
:10128000441300202DE9F74F92468A790B46012A34
:1012900073D19AF90620002A6FDBCA7C52066CD5FE
:1012A0004E6E002E4DD1364A364D1278D1F860C0C0
:1012B000283232F805808F7AD1F85CB0624601F1AD
:1012C0000B0905F108004146CDF804C0FFF7F2FE16
:1012D0002D480FF039FC0446002843D0BBF1130F12
:1012E000DDF804C0A8BF4FF0130B61465A46043026
:1012F0000EF0C8FA254BA3441B688BF8046004F178
:101300001C0EA36105F108030FCB8EE80F003A46CF
:101310004946A4F82C8084F82E7004F12F000EF0BA
:10132000B1FA1B48214626870FF0DCFBE16B5046E3
:101330004B1CE3630FF019F9E36B23F07F43E36386
:101340001BE0012E19D10E4A1249127801F1080052
:101350002832895A03F10B029B7A03B0BDE8F04FA3
:10136000FFF77CBE50460C49A32310228AF80630B2
:1013700003B0BDE8F04F0FF083B903B0BDE8F08FC4
:10138000B83900204C3E002088040020440F002083
:10139000441300204C3E0020F42721002DE9F74F94
:1013A0000C9F8B4690461E4600F0B8F90FF07CFB70
:1013B000002481462546B9F1000F7ED04DB13B682F
:1013C0009D4205D3B4423EBF2C2308F804300134BB
:1013D00001353B689D4205D3B4423EBF3C2308F82B
:1013E000043001343A686B1C934205D3B4423EBFCB
:1013F0002F2308F804300134D9F804C002356046C0
:10140000CDF804C00EF048FD3B6800EB050A9A4594
:10141000DDF804C00FD9711C5B1B08EB0400091B2D
:10142000002BACBF63440CF10003354A0FF0B3FA54
:101430000444B44241D23B689A4505D3B4423EBF0E
:101440003E2308F804300134D9F80C300AF10105C4
:1014500053B31B7843B33B2B26D03B689D4205D347
:10146000B4423EBF3B2308F804300134D9F80C30B5
:101470000AF1020A184601930EF00EFD3A6800EBDD
:101480000A059542019B0FD9CAEB020A711C08EBB1
:101490000400091BBAF1000FA8BF5344184A0FF00B
:1014A0007AFA0444B44204E0B44203D93A682B1BEC
:1014B000934203D8D9F800907DE74CB14146584695
:1014C00022460FF0DDF8584628210EF08AFF09E089
:1014D00045B1822158460EF067FF584609490F2250
:1014E0000FF0CEF8B9F1000F03D14FF0FF333B609E
:1014F00002E03B681E443E6003B0BDE8F08F00BFD1
:1015000005282100AF27210070B502880546C82AAA
:1015100009D0D82A21D082B91B4B8521186805F043
:101520003FFAC82307E085290BD118480FF0BCFA11
:10153000044644B9D8232B8003E000230380032012
:1015400070BD012070BDE3692BB1A16819B104F130
:101550000C000FF04FFA2468EBE78829EAD10B481A
:101560000FF0A2FA0446002CE4D0A36853B104F1B2
:101570000C0630460FF059FA20B1E369984730461F
:101580000FF041FA2468EEE70C1600204813002003
:101590002DE9F04F3A4D87B00E46994606A9002333
:1015A00041F8043DEB6890460746DDF840A09847B7
:1015B000029034480FF078FA0446DDF814B0002C9D
:1015C00051D06368184603930EF066FC029B0246F6
:1015D0008342039B07D044DD2189C90641D51BF80E
:1015E00000102F293DD1184659460EF083FC0028E3
:1015F00037D12B6938469847C20704D5D4F810C0B4
:10160000BCF1000F14D1830704D5D4F814C0BCF189
:10161000000F0DD1410704D5D4F818C0BCF1000F5C
:1016200006D1020715D5D4F81CC0BCF1000F10D0AC
:101630004B46CDF800A0384631464246E047238964
:101640005B0617D520462B6E394632469847012057
:1016500005E06B693046D5F88C10984700200124CE
:101660000AE02468ABE76B693046D5F888109847E4
:10167000012001E001200446204007B0BDE8F08FC2
:101680000C2221004C13002038B50A4B1C7884B979
:10169000094D012209481A700FF003FAAB68084897
:1016A00098476B6898472146BDE83840054805F0E3
:1016B0009FB938BDE42F00200C2221004C130020DC
:1016C00091152000B8040020F8B5044641600F4889
:1016D00021460FF007FA23891B0616D5216ACB692C
:1016E0009BB18B688BB10A4E0A480FF0FBF930466C
:1016F0000FF0A9F948B1084D236A2F6803F10C00D7
:1017000099682E600FF076F92F60F8BD4C13002019
:10171000B8040020481300200C1600200048704731
:101720004C13002008B5FFF7AFFF00F047FA00F0B8
:1017300025FEBDE8084001480FF0CAB81A2821006C
:101740002DE9F7431F460388044616460B9DDDF836
:10175000348013B1632B43D068E03E4A03611268C2
:10176000C36042603C4A436113703C4A13603C4A88
:101770001370FEF75BFE39462881BDF82820FFF77D
:101780008DFBA06000282FD031460EF08CFFA3689F
:10179000344A354E1A63A36828465C632369A268FD
:1017A0009B013360E1680096783240230C9FB84774
:1017B0003268294B013218BF01221A702169402377
:1017C00028460EF028FFA668284606F13A01FEF7E3
:1017D00035FE3087A068FFF79FFB6323238029E055
:1017E000822927D1E06828B901236361002323807F
:1017F00002202BE0DFF86490002300931B4A494647
:101800000EF0ECFED9F8002023699A4214D1B8F109
:10181000000F01D0E068C0472369013323610E4BFC
:101820001B7873B9003318BF012363610023238041
:1018300003200BE0012009E0094A137801331370FB
:10184000EDE7074A1278032AECD892E703B0BDE827
:10185000F08300BF0C160020E72F00205413002057
:10186000E52F00209F06210050130020E62F0020C6
:101870002DE9F047174686B04FF0FF328246894681
:10188000BDF84080119C0592204E1BB1326A18466B
:1018900005A990471E4D05982B68984700282CD025
:1018A0000CB1226800E022464146CDF80490029730
:1018B000059BAF68CDF800A00F98B8476B68074646
:1018C0000598F6699847DFF8449001460E98B047AE
:1018D000D9F84C300E980F993A464CB19847226887
:1018E0004244BA42A6BF4FF0FF332360226009E0B2
:1018F0004745A8BF4246984704E073690E98D6F85A
:101900009010984706B0BDE8F08700BF0C22210078
:10191000F80400202DE9F047174686B04FF0FF325B
:101920008046894603921E46194D1BB12B6A3046EC
:1019300003A99847DFF85CA00398DAF800309847CD
:10194000E8B1AB6C304604A998470546049805AB4E
:101950000193CDF80090DAF818604119039A4346D4
:101960000B4CB04738B105982946B847636918B1A0
:101970000E98E16E07E063690E98A16F03E06B6952
:101980000E98D5F89010984706B0BDE8F08700BFD4
:101990000C222100F804002038B504460A480D4600
:1019A0000FF082F8094B186058B14268A24206D184
:1019B0001860C565BDE83840054805F031B80068D5
:1019C000F2E7186038BD00BF5C13002060130020F0
:1019D000C80400202DE9F7430588044691461F46B8
:1019E0000B9E15B1902D52D04DE0314BDFF8D880D1
:1019F0001B68056143602F4BC56045611D70C8F8C9
:101A00000050FEF713FD39463081BDF82820FFF75E
:101A100045FA0746A06038B349460EF044FEA36875
:101A2000254A28461A63A36831465C63A3680C9D67
:101A30009B883381A2684023CDF800807832A84784
:101A4000D8F800104B1C02D01C4803F019FCA56804
:101A5000304605F13A01FEF7F1FC2887A068FFF750
:101A60005BFA9023238014E015480EF031FF012328
:101A700063612780022018E00E4B1B78032B94BF74
:101A80000023012363610023238003200DE08229CA
:101A900001D0012009E0E568002DEDD109480EF0E4
:101AA00017FF012363612580E4E703B0BDE8F083FD
:101AB0000C160020E82F00209F0621005F2821003F
:101AC000B52821009F28210020140020F0B50388AC
:101AD00085B0AF2B04460E460ED0BA2B3DD0002B5E
:101AE00055D12E480EF0F4FE2D4880210EF082FFD5
:101AF000AF23238001204FE029480EF096FF08B95C
:101B0000822EF5D127480EF0CFFF274B1860264DC7
:101B100029680029E8D001F144005C310EF028FE6C
:101B200000282FD02F6801F01FFF2A6878665368BD
:101B30001E4859681A3203F0A3FB00210B4603220A
:101B40001B480EF002FC296819481A310EF0A7FC58
:101B5000184B00221A80BA232380134B15481B68A8
:101B600031461A8B083352BA92B20092104A01924F
:101B700053F8042C126902920F4A1268FFF72AFFE9
:101B8000012808D9084B1A6812681A60BFE70023B9
:101B90000380032000E0002005B0F0BDDB28210019
:101BA000241400205C13002034140020ED282100B0
:101BB0007C13002064130020440F002008B5044863
:101BC0000EF06FFFBDE808400248002104F010BF8E
:101BD0005C130020C80400202DE9F04F87B09B461D
:101BE000109F0023144604930122504B97428146D4
:101BF0000D46BDF850A0159E1A60039303DD01F059
:101C0000B3FE4B4B1860D6F80080B8F1000F5ED1E0
:101C1000C4F8008047480EF097FF286048B9129832
:101C200082210EF0C1FB129843490F220EF028FDCD
:101C300079E0002F0CDD2168404B0844D3F80CC03C
:101C4000C1F580714B464246E04723681844206046
:101C50004FF00008B84522682BDA06A9002341F8A6
:101C6000083D5BF828002B68C2F5807E0091D0F813
:101C700010C01A4411981FFA8EF31299E047304BA6
:101C800005A912989B6C9847216808F10108014446
:101C9000B8452160DEDA2868284B0844D3F810C024
:101CA000C1F580714B460022E0472368184420604C
:101CB000D0E7002F0BDD2868204B10445F69C2F588
:101CC00080714B460022B847236818442060326870
:101CD00023689A42A3DC02EB0A0029689842114467
:101CE0001298CCBF9A1A52460EF0CAFC134B4846C3
:101CF0005B689847014612980EF073FB33682268C0
:101D00005344934209DB4FF0FF333360094829689D
:101D10000EF02EFF00232B6000E03360044A002306
:101D20001360039A136007B0BDE8F08F38140020E9
:101D300058130020D8040020AF272100F804002009
:101D40000C2221002DE9F04F87B0054610989B46E4
:101D50004FF0FF3389460192DDF84880BDF84C60B2
:101D6000149F059318B1854B05A91B6A9847059BDD
:101D70005A1C02D0282B40F0F880002F00F0FB8086
:101D80001BF001043AD03B682BB936B13C2388F8EC
:101D90000030012402E0002400E034463B68012BBF
:101DA00005D8B4423EBF2F2308F8043001346B68D5
:101DB000184602930EF070F83A6800F1020A924554
:101DC0000546029B0FD9A2F1020E711C08EB04001C
:101DD000091BBEF1000FA8BF7344694A0EF0DBFD7A
:101DE0000444B4420CD23B689A4505D3B4423EBF8A
:101DF0003E2308F804300134033502E0254600E0B4
:101E00000225A9F104094FF0000A019B9A4580F2CE
:101E10008C804DB13B689D4205D3B4423EBF2C231C
:101E200008F80430013401353B689D4205D3B442C3
:101E30003EBF3C2308F8043001343A686B1C9342DF
:101E400005D3B4423EBF2F2308F80430013459F8BB
:101E5000043F02355B68184602930EF01DF83A689D
:101E600000EB050C9445029B13D9C5EB020E711CC7
:101E700008EB0400091BBEF1000FA8BF7344404AE1
:101E8000CDF808C00EF087FD0444B442DDF808C068
:101E90004BD23B689C4505D3B4423EBF3E2308F875
:101EA000043001341BF0020F0CF1010534D0D9F8D5
:101EB0000030DB681B787BB33B2B0BD03B689D422B
:101EC00005D3B4423EBF3B2308F8043001340CF183
:101ED000020C00E0AC46D9F80030CDF80CC0DB684D
:101EE000184602930DF0D8FFDDF80CC03A6800EBFD
:101EF0000C059542029B0FD9CCEB020C711C08EB30
:101F00000400091BBCF1000FA8BF63441C4A0EF07B
:101F100042FD0444B44204E0B44203D93A682B1BA6
:101F2000934203D80AF1010A6FE74CB14146119878
:101F300022460EF0A5FB119828210EF052FA09E076
:101F400045B1822111980EF02FFA11980D490F22F8
:101F50000EF096FB019B9A4515BF3B684FF0FF338F
:101F6000F6183B6018BF3E6005E0044B11985A69B3
:101F7000D3F89010904707B0BDE8F08F0C222100F5
:101F800005282100AF2721002DE9F04F89B0149CCE
:101F90001E464FF0FF3383468A469046DDF8489050
:101FA000159DBDF85C70079324B11A4B204607A914
:101FB0001B6A9847079828280ED1169B8DE8300099
:101FC0000293189B03970493404631464A46BDF856
:101FD0004C30FFF7B7FE19E00F4B1B68984778B1FC
:101FE000169BCDF800900393189B019405930295DE
:101FF00004970798594652463346FFF7EDFD05E032
:10200000044B28465A69D3F89010904709B0BDE8B0
:10201000F08F00BF0C222100F8040020F8B5069CC8
:1020200019462268074612481D4603F029F9114A4D
:10203000216813681646994203DB0F4803F020F924
:1020400011E04A199A42C4BF5B1A9DB20B4B2A4653
:102050001B68384619440EF013FB23681D4433688F
:1020600025609D4202DB4FF0FF332360F8BD00BFC7
:10207000092921002015002024292100E404002042
:1020800070B5028886B0A92A04460D4635D00DD811
:102090009B2A79D0A52A13D0002A40F0DD80714B0D
:1020A0008521186804F07CFC9B2396E0B72A00F099
:1020B0009680C12A00F0BD80B32A40F0CD804DE06B
:1020C000694B6A4A198881B9598871B9998861B987
:1020D000D98851B9198941B9598931B9998921B931
:1020E000DB8913B91370A52377E0022360488021B0
:1020F00013700EF07FFCA9236FE05D480EF095FC95
:10210000002873D05B4803F0BBF8574808F088FB01
:10211000594E5A4B32681988594803F0B1F80021DA
:102120000B46022257480EF010F9574955480EF059
:10213000B6F9564A3C235649564803F0C5F8554966
:1021400050480EF0C7F9544B4E481A6831680EF0EB
:1021500097FA524B00221A80B3232380474B4F48F3
:102160001B8829465BBA9BB20093464B01934C4BAC
:1021700002934C4B03934C4B1A683B4BFFF7E0FA2E
:1021800001281CD800206AE085292FD147480EF08D
:102190009FFB474988780A784B780090C87801906F
:1021A000087902904879039088790490C979374872
:1021B0000591404903F088F83F4B00221A703F4BCD
:1021C0001B78002B3FF47CAF284B032228484FF4A8
:1021D000D8511A700EF00EFCB723238006E0244875
:1021E0000EF023FC344B18B91A780AB9012036E0F6
:1021F000324A1E7800211170002EDDD1304931485D
:1022000003F03EF8334603221E4831460EF09DF897
:102210002B491C480EF043F92B493C221D4803F082
:1022200053F818481B490EF055F9284B1E80C1235E
:102230002380124B25481B8829465BBA9BB200932A
:10224000104B0193224B0293174B1A68064BFEF773
:10225000A1FD0128B0D895E700232380032006B014
:1022600070BD00BF0C160020282700203833002046
:102270001015002071292100E404002026270020E9
:10228000812921003C1400208E292100F7320020F2
:10229000912921002F32002020150020E014002079
:1022A0001D20200011232000440F00203729210089
:1022B000443E0020492921002E32002037330020DF
:1022C000ED310020A129210097292100F8140020D8
:1022D000D522200008B570B18179442906D108487B
:1022E0000EF0F6FA074B01221A7008BD0648BDE849
:1022F000084002F0C5BF0548BDE808400EF0E8BA46
:10230000B529210037330020BD292100D92921001A
:1023100037B510B38179412919D102A9002541F8B7
:10232000045D0EF0E9F8041E0FDD0E4B2246184640
:1023300001990DF0A7FA0346055519460A4802F01F
:102340009FFF0A4B01221A700AE0094806E05F2944
:1023500006D0084802F094FF02E007480EF0B8FAF1
:1023600003B030BDED310020F129210037330020CA
:10237000082A2100BD292100D929210041F2336218
:10238000074B0021198059809980D9801981598182
:102390009981D981034B04481A8004F029BB00BFFE
:1023A0002827002026270020E8040020421C06D011
:1023B000044BD3F8B430C31A584258417047012037
:1023C000704700BF0C222100014BD3F8B4007047C6
:1023D0000C222100F0B587B00D460C990646144634
:1023E0000E9B062952D8DFE801F00404080F1A25D5
:1023F000410002A81021284A02E0284A02A8102120
:102400001B680EF0C8FA24E01F680A23B7FBF3F23A
:1024100003FB127202A800921021214A15E01F68E6
:102420006423B7FBF3F203FB127202A8009210219F
:102430001C4A0AE01F684FF47A73B7FBF3F203FB00
:1024400012720092184A02A8102197FBF3F30EF0C3
:10245000A2FA02A80DF020FDA0421ADD02AB304620
:10246000691C124A002CA8BF1B190CE01F683846D3
:102470000DF012FDA0420CDD3046002CACBF3B1924
:102480003B1C0A4A691C0EF086FA03E0084802F079
:10249000F7FE002007B0F0BD2A2A21006A3A210089
:1024A0002E2A2100342A21003C2A2100052821005F
:1024B000442A210008B525482549FFF705F9254894
:1024C0002549FFF701F925482549FFF7FDF825487B
:1024D0002549FFF7F9F825482549FFF7F5F825487C
:1024E0002549FFF7F1F825482549FFF7EDF825487C
:1024F0002549FFF7E9F825482549FFF7E5F825487C
:102500002549FFF7E1F825482549FFF7DDF825487B
:102510002549FFF7D9F825482549FFF7D5F825487B
:102520002549FFF7D1F825482549FFF7CDF825487B
:102530002549FFF7C9F825482549FFF7C5F8BDE843
:10254000084024482449FFF7BFB800BF24070020F3
:10255000622A2100C8050020662A21000007002009
:102560006E2A2100DC060020762A21006C0700205C
:10257000872A21005C050020982A2100940600206B
:10258000A62A2100B8060020B52A2100380500201F
:10259000C52A210090070020D72A2100B407002077
:1025A000E32A210070060020F52A21008005002082
:1025B000082B2100480700201B2B2100A405002028
:1025C000302B2100140500203C2B21004C0600205C
:1025D000472B2100EC050020502B2100014B024825
:1025E000DB6D18470C2221003805002008B5044B8C
:1025F000014618800322022000F000FF012008BDE0
:10260000223E00202DE9F84F0546374CDFF8F8B0A0
:10261000DFF8F890354802F033FEDFF8F4802188C7
:10262000584602F02DFE324F6188484602F028FEDF
:10263000A61D2179404602F023FE3146384602F0BD
:102640001FFEDFF8D0A01E212A4802F019FE1E222C
:10265000204600210DF0F0F92946504602F010FE08
:102660002946504602F00CFE6B88B5F800A0A91D63
:1026700063802B79204D304617222371A4F800A0E7
:102680000DF082FC1722314628460DF07DFC002318
:10269000514658466377EB7502F0F2FD6188484673
:1026A00002F0EEFD2179404602F0EAFD314638465F
:1026B00002F0E6FD114B032219880C2000F09EFE6B
:1026C0000F4B032219880E2000F098FE0D4B0322B9
:1026D0001988022000F092FE294610227C2000F08A
:1026E0001BFE0120BDE8F88F3A4700205B2B21003C
:1026F000022C2100342C2100C03D0020223E00206D
:10270000A43D0020203E0020792B2100A72B210092
:10271000D42B2100512C210030B5054687B0084844
:1027200006AC44F8040D8DE80E000A9B06200393C6
:10273000044922462B46FFF79BF807B030BD00BF87
:102740008B2C21006A2A210030B5054687B0084845
:1027500006AC44F8040D8DE80E000A9B0620039396
:10276000044922462B46FFF783F807B030BD00BF6F
:102770009A2C2100722A210030B5054687B00848FE
:1027800006AC44F8040D8DE80E000A9B0620039366
:10279000044922462B46FFF76BF807B030BD00BF57
:1027A000A52C21007E2A210030B5054687B00848B7
:1027B00006AC44F8040D8DE80E000A9B0620039336
:1027C000044922462B46FFF753F807B030BD00BF3F
:1027D000B52C21008F2A210030B5054687B0084866
:1027E00006AC44F8040D8DE80E000A9B0620039306
:1027F000044922462B46FFF73BF807B030BD00BF27
:10280000E82C21009C2A210030B5054687B00848F5
:1028100006AC44F8040D8DE80E000A9B06200393D5
:10282000044922462B46FFF723F807B030BD00BF0E
:10283000A83D0020AA2A210030B5054687B00848E7
:1028400006AC44F8040D8DE80E000A9B06200393A5
:10285000044922462B46FFF70BF807B030BD00BFF6
:10286000C03D0020B92A210030B50546084887B090
:10287000008806AC44F8040D8DE80E000A9B022087
:102880000393044922462B46FEF7F2FF07B030BD02
:10289000A43D0020DB2A210030B50546084887B05A
:1028A000008806AC44F8040D8DE80E000A9B022057
:1028B0000393044922462B46FEF7DAFF07B030BDEA
:1028C000203E0020342B210030B50546084887B053
:1028D000008806AC44F8040D8DE80E000A9B022027
:1028E0000393044922462B46FEF7C2FF07B030BDD2
:1028F000223E0020402B210030B50546084887B015
:10290000006806AC44F8040D8DE80E000A9B022016
:102910000393044922462B46FEF7AAFF07B030BDB9
:10292000243E0020F02C210030B5054687B0084831
:1029300006AC44F8040D8DE80E000A9B06200393B4
:10294000044922462B46FEF793FF07B030BD00BF77
:10295000143E0020E72A210030B5054687B008481C
:1029600006AC44F8040D8DE80E000A9B0620039384
:10297000044922462B46FEF77BFF07B030BD00BF5F
:10298000F23D0020F92A210030B50546084887B0FD
:10299000006806AC44F8040D8DE80E000A9B022086
:1029A0000393044922462B46FEF762FF07B030BD71
:1029B000083E00200C2B210030B50546084887B0A2
:1029C000006806AC44F8040D8DE80E000A9B062052
:1029D0000393044922462B46FEF74AFF07B030BD59
:1029E0001C3E00201F2B21001FB504468DE80E0061
:1029F000069B062003930349034A2346FEF78AFFFA
:102A000004B010BDB92A2100AD2B20001FB504462B
:102A10008DE80E00069B022003930349034A2346D8
:102A2000FEF778FF04B010BDDB2A21004D2C2000FA
:102A30001FB504468DE80E00069B02200393034950
:102A4000034A2346FEF766FF04B010BD342B210075
:102A5000692C20001FB504468DE80E00069B02205D
:102A600003930349034A2346FEF754FF04B010BD05
:102A7000402B2100ED2520001FB504468DE80E00F7
:102A8000069B062003930349034A2346FEF742FFB1
:102A900004B010BDE72A2100E92B20001FB5044631
:102AA0008DE80E00069B062003930349034A234644
:102AB000FEF730FF04B010BDF92A2100192C2000C8
:102AC0001FB504468DE80E00069B022003930349C0
:102AD000034A2346FEF71EFF04B010BD0C2B210055
:102AE000892C20001FB504468DE80E00069B0620A9
:102AF00003930349034A2346FEF70CFF04B010BDBD
:102B00001F2B210005262000F0B587B00F46164682
:102B10001D46044600F028FF0C9B06AA42F8040D4F
:102B20000549039300970196029502202346FEF77C
:102B30009FFE07B0F0BD00BF4B2B2100F0B587B062
:102B40000F4616461D46044600F00EFF0C9B06AAD3
:102B500042F8040D0549039300970196029502205F
:102B60002346FEF785FE07B0F0BD00BF542B2100C1
:102B700010B588B005930A9B4FF0000E0F24029009
:102B80000391049206938DE8104004480449054AD5
:102B9000054BFFF7F9F908B010BD00BF2415002060
:102BA0002815002024070020100600200F2938B522
:102BB000054612DC0A4C2946172220460DF0E4F99E
:102BC0002946084802F05CFB0023214610227C20A5
:102BD000E37500F0A1FB012038BD002038BD00BF27
:102BE000C03D0020FE2C2100082910B503460ED858
:102BF000084C1946204607220DF0C6F9002321464D
:102C000008223C20E37100F087FB012010BD00206A
:102C100010BD00BF143E0020082908B503460ED899
:102C20001946072207480DF0AFF9074B0022DA7169
:102C300004490822442000F06FFB012008BD002059
:102C400008BD00BFF23D0020143E002008B540B191
:102C5000044BC0F30B0103220E20198000F0CEFBC1
:102C6000012008BDA43D00201F2808B508D8054B49
:102C700081B203220220198000F0C0FB012008BDB0
:102C8000002008BD203E002038B52C4C2C4D206083
:102C9000C0B200F07F03632BC2BF632363F306005F
:102CA00020702178236801F07F0126482B6002F014
:102CB000E7FA21782448C90902F0E2FA617823484A
:102CC00001F0010102F0DCFA61782148C1F3400112
:102CD00002F0D6FA61781F48C1F3840102F0D0FAFD
:102CE00061781D48C90902F0CBFAA1781B48C1F3ED
:102CF000400102F0C5FAA178194801F0010102F083
:102D0000BFFA29680522102000F0A6FB21780A06E8
:102D100007D4144B01F07F0108200322198000F032
:102D20006DFB21780B0607D50F4B01F07F010620C4
:102D30000322198000F062FB012038BD30470020DB
:102D4000083E0020192D21003C2D21005E2D210080
:102D5000802D2100A22D2100BD2D2100DB2D210081
:102D6000FE2D2100FA3D0020063E002008B500F0AF
:102D700019F8024B00221A7008BD00BF3933002039
:102D8000024A13781843107000F014B83933002049
:102D9000034A137823EA0000107000F00BB800BF5C
:102DA00039330020024A136843F010031360704760
:102DB00000C40D40014B1860704700BF40C00D407B
:102DC0002DE9F0418AB000F09FFF01F05FF800F0BC
:102DD000B5FF00F099FD01F0FDFE0DF039FE01F0A8
:102DE0004DF87C4B0320024600210093012301F0A3
:102DF00067FF00200AF014FE0AF04AFE0AF034FED3
:102E00000AF06EFEFFF7B2FF03F066FD00F068FF08
:102E100000F012FA002000F071FE6F4C012000F06B
:102E20006DFE00206D4900F045FF03F0A9FE02226F
:102E30000020214600F044FB48F6880322889A428D
:102E400001D00AF0B1FC66490422182000F078FB9A
:102E500062B664480DF03CFD63480DF039FD00F0AA
:102E6000F5FC624802F00CFA614B624C18680DF0F8
:102E70002FFD614802F004FA604B614E18680DF0B6
:102E800027FD604802F0FCF95F4B18680DF020FD4B
:102E90005E4802F0F5F95E4B18680DF019FD5D48CB
:102EA00002F0EEF91A215C4802F0EAF95B4802F000
:102EB000E7F94AF6CD315A4802F0E2F9002003F072
:102EC00089FE01F079FD5748002103F091FD03F0E0
:102ED00045FB08A8082101F0A3FE08AB03CB18228C
:102EE00020606160504800219DF827709DF8268081
:102EF0000CF0A2FD627823780092A278182101924A
:102F0000E27849480292227903926279CDF81480DE
:102F100004920697454A0DF03EFD627823780092B0
:102F2000A27818210192E278414802922279039214
:102F300062790492A2790592E27906923D4A0DF0F7
:102F40002AFD394918224C2000F0E6F918223849A8
:102F5000642000F0E1F93649374802F091F9F56A4A
:102F60004AF6CD310220A84747EA08210320A847A6
:102F70001A210120A847736B08A908220C20984742
:102F800001F016F801F032F803F00CFE09F032FD02
:102F900009F0F8FB294A2368294813606368002177
:102FA000536003F025FD00F093FF2648002103F055
:102FB0001FFD0DF01EFD24480DF011FD00F096FEE2
:102FC00000F09AFE03F0A0FC10F0FF0FF8D101F022
:102FD00099FDF5E7A0860100F03D00203D6B200043
:102FE000243E0020B52C210024312100373121005E
:102FF000B0242100CB4700203E31210004252100D0
:103000005024210047312100BC2421004E312100F1
:10301000E4242100553121001133210060312100C9
:103020006A31210044080020A83D002049292100E0
:10303000D83D00206E31210096312100443E002011
:10304000E8080020D80700201425210070B5058865
:103050000446772D30D07E2D3FD0002D4DD103F08A
:1030600033FC294B1870294B1D601D462B68284ADC
:10307000264E52F823204AB126480021C1549368B5
:1030800080209847336801333360EFE7224A13709A
:10309000772320E01F4AD256002A12DB1B4A13680E
:1030A00001331360194B1C4A1B6812789342F1DB01
:1030B0001A4B1B68002BEBD0184A00231360134AED
:1030C000EFE7114A00201178114A52F8232003F04B
:1030D00067FC30B97E23238013E00B4B1B788B42B7
:1030E0000FD10A4B0B491A688B5C03F07F038B549A
:1030F0000A4A136801331360D0E7002303800320DA
:1031000070BD012070BD00BFB34700203015002006
:10311000E8070020B44700203A3300202C15002097
:10312000094B1A780023934204DA084951F8231016
:10313000814207D106490748CA5C62F07F02CA543F
:1031400003F06EBC0133EEE73A330020E8070020BD
:10315000B4470020D807002038B505460A480C4679
:103160000DF091FC78B1084810210DF07AFC022D89
:1031700009D10CB9054802E0012C04D10448BDE88E
:103180003840FFF7CDBF38BD34150020182321008B
:1031900028232100C3430E490A681A400A6051F8E7
:1031A000202C1A4041F8202C51F81C2C1A4041F8D0
:1031B0001C2C51F8182C1A4041F8182C51F8142CDA
:1031C0001340044A41F8143C1368184310607047D8
:1031D00020B40D4010B40D4008B50120FFF7DAFF10
:1031E00002200021042200F05FFE054B04221A6039
:1031F00004480221002200F0F9FD012008BD00BFB3
:1032000000E100E05931200008B50220FFF7C2FFBD
:1032100002200121042200F047FE054B04221A601F
:1032200004480221012200F0E1FD012008BD00BF99
:1032300000E100E059312000014800210DF011BCEF
:1032400034150020802808B50FD1094A00201368E2
:10325000062123F04003136052F8203C23F0400382
:1032600042F8203C012200F01FFE002008BD00BFF4
:1032700020940D4001280CBF014B024B1868704789
:10328000303E0020343E0020812803BF024B012045
:1032900019600020704700BF3C15002081380128CC
:1032A0009ABF024B18680020704700BF3C150020F1
:1032B00038B50A4A0A4D1368002423F0200313602E
:1032C00052F8203C032043F0200342F8203C052123
:1032D0002C60224600F0E8FD2C6038BD20C40D4073
:1032E00080C00D4010B50A4A0A4C1368032023F031
:1032F0002003136052F8203C052143F0200342F8DC
:10330000203C0022226000F0CFFDFF23236010BD8F
:1033100020C40D4080C00D40B0B502F1080382B05A
:1033200023F0070300AFB0F5007F1546F880ADEB42
:10333000030D044617D26846BB7900F8013B0CF038
:10334000A1FAFFF7B5FF0A2000F018FB200A40F0B1
:10335000500069462A4601F05DFD044628B1054843
:103360000DF0B6FA01E0012000E020460837BD4626
:10337000B0BD00BFE23121002DE9F04182B0B0F5CF
:10338000007F00AF88461646F8802DD2D31D23F06B
:103390000703ADEB030DBB79000A40F050058DF833
:1033A0000030FFF785FF0A2000F0E8FA28469DF874
:1033B000001001F0FFFC044608B10E480AE00A20A4
:1033C00000F0DCFA28466946324601F06DFD0446FD
:1033D00018B109480DF07CFA04E0404669463246CF
:1033E0000CF050FA204600E001200837BD46BDE849
:1033F000F08100BFF631210009322100B0B5D31DA4
:1034000023F00703B0F5007F00AF04461546ADEB8F
:10341000030D1CD20B0A8DF801308DF802108DF8C7
:103420000000FFF745FF0A2000F0A8FA200A40F04C
:10343000500069462A4601F0EDFC044618B10548E3
:103440000DF046FA01E0FFF74DFF204600E00120B5
:10345000BD46B0BD1C322100B0B5D31D23F007031B
:10346000B0F5007F00AF04461546ADEB030D22D248
:103470000B0E8DF801300B0C8DF802300B0A8DF815
:1034800003308DF804108DF80000FFF711FF0A20BB
:1034900000F074FA200A40F0500069462A4601F014
:1034A000B9FC044618B105480DF012FA01E0FFF727
:1034B00019FF204600E00120BD46B0BD1C322100AE
:1034C0002DE9F041B0F5007F00AF0E4690462ED2B8
:1034D000D31D23F00703ADEB030D050A8DF80000A3
:1034E00045F05005FFF7E4FE0A2000F047FA2846B1
:1034F0009DF8001001F05EFC044608B10E480AE099
:103500000A2000F03BFA28466946424601F0CCFC0E
:10351000044618B109480DF0DBF906E09DF80020DB
:103520009DF8013003EB02233380204600E00120A8
:10353000BD46BDE8F08100BF303221004432210099
:103540002DE9F041B0F5007F00AF0E46904636D22F
:10355000D31D23F00703ADEB030D050A8DF8000022
:1035600045F05005FFF7A4FE0A2000F007FA2846B0
:103570009DF8001001F01EFC044608B112480AE054
:103580000A2000F0FBF928466946424601F08CFC0F
:10359000044618B10D480DF09BF90EE09DF800208F
:1035A0009DF8013003EB02239DF8022002EB032279
:1035B0009DF8033003EB02233360204600E0012036
:1035C000BD46BDE8F08100BF303221004432210009
:1035D000034637B50D468DF804001946402001F02A
:1035E000E9FB044608B10E480BE042F2283000F037
:1035F000C5F9402001A9022201F056FC044620B181
:103600000848214601F03CFE06E09DF804209DF8A4
:10361000053003EB02232B80204603B030BD00BFF2
:10362000583221007E32210013B50B0A8DF80400B8
:103630008DF80610402001A903228DF8053001F015
:10364000E9FB044618B10348214601F019FE204663
:1036500002B010BDA4322100802808B512D10A4A58
:1036600000201368022123F00403136052F8203C69
:1036700023F0040342F8203C012200F015FC03482B
:103680000DF026F9002008BD20940D40A93321003B
:10369000812803D0822804D1034B00E0034B187823
:1036A00070474FF0FF3070473B3300203C33002021
:1036B000064B1B783BB1064BC0B21870054B40005F
:1036C0001870002070474FF0FF3070473B330020E8
:1036D0003C3300203D330020012813B504460DD1B2
:1036E00003290BD100F06EF9054B2246197800230F
:1036F000014400930348044B03F09EF902B010BD4F
:103700003D330020401500200D37200010B5084B38
:10371000084C1B78092B08D95F2B4FF0FF0323605F
:1037200000D910BD322000F029F90023236010BD1C
:103730003C33002080A00D4081282DE9F84355D16D
:103740002C4D2D4EDFF8C890DFF8C88000293AD004
:103750002A4F01203B68052123F020033B602B68A2
:10376000082243F020032B6000F09EFB244B002432
:103770001C603B68234A23F008033B602B68224807
:1037800023F008032B601368012123F00803136062
:10379000536823F008035360936843F00803936071
:1037A000032200F023FB3368022243F00803336056
:1037B000164B20461A60012389F800300A2388F846
:1037C0000030BDE8F8833368084623F0080333600F
:1037D0002B6823F020032B602B6843F008032B6039
:1037E00089F8001088F80010BDE8F8834FF0FF302A
:1037F000BDE8F88300A40D4010A40D4020A40D40A6
:1038000080A00D4004A40D40D936200000E100E066
:103810003B3300203C330020044B1868C0F30720E2
:10382000030904BF1030C0B2704700BF1C300D4008
:10383000054B1868C0F3C21001289ABFC0F10200FE
:1038400040034FF40040704714300D402DE9F0471D
:1038500088B0FFF7E1FF174B48251C68AB680746A7
:1038600098476B68804698470646FFF7E1FF054694
:1038700000F0A4FA824600F0ADFA814600F054FA56
:10388000B60AC4F34003AD0A04F0010402930690A3
:10389000009601950394CDF810A0CDF81490414600
:1038A000C7F3071207F00F03034801F0E9FC08B063
:1038B000BDE8F0871C300D40F7332100F8B500F06B
:1038C00081F80F4B0024D3E900673A46B04238BF75
:1038D0007A1C15460443C3E90045DFF828E0DEE919
:1038E0000001821B61EB070312196B41CEE9002333
:1038F00002F054FF18B1BDE8F84002F0DFBEF8BD99
:10390000C80B0020D00B00200D4B0E4AE0215A605E
:103910000D4A82F82310002207219A6019600B4992
:103920000B6843F001030B60094B1A60042243F853
:103930000C2C012243F8082C0F22DA62704700BFDA
:1039400010E000E047E8010000ED00E008200D4035
:103950000C000340034BD3E90023100A40EA036044
:10396000704700BFC80B0020034BD3E90023D00BE6
:1039700040EA4340704700BFD00B0020054B186061
:103980001C3B1A6842F001021A601A68D207FCD484
:10399000704700BF2800034010B5064C236823F091
:1039A00001032360FFF78AFF236843F001032360CC
:1039B00010BD00BF10E000E0014B1868704700BF69
:1039C0004C150020074B084A196804331B6812681D
:1039D000120442EA0323054A0B43106843EA0060DD
:1039E000704700BF40500D4048500D404C500D40B6
:1039F00010B50446104B1B68DB07FBD572B6FFF70A
:103A0000E1FF231A062BD8BFC41D0C4B220E1A60EF
:103A1000C4F3074243F8042CC4F3072243F8082CEC
:103A2000E2B243F80C2C62B6054B4FF400321C6036
:103A3000044B1A6110BD00BF50500D404C500D405A
:103A40004C15002000E100E008B501F041F8074BFB
:103A500000221A60064B4FF40032C3F89021C3F8DD
:103A60009020BDE8084002F0F9BF00BF4C150020CF
:103A700000E100E0064B1B681B075FBF054B1868A1
:103A800080F00800C0F3C00048BF0020704700BFAE
:103A900018C0004018D00040164A38B52C2303FB4C
:103AA00000234FF6BF72DC680546236C62649BB24C
:103AB00013F050020DD0A369DB0609D40E4B53F866
:103AC00025301BB12068C0B29847F4E72368F2E7BD
:103AD00038BD13F4D06F0BD04FF440732363FF2332
:103AE0006360E36AE262E362236B43F001032363F2
:103AF00038BD00BF78232100501500202DE9F04F7C
:103B0000012885B0064600F2C3802C244443624B52
:103B10001D1995F920A005F12007BAF1000F99466B
:103B2000C0F2B68095F92230002BC0F2B1805B481C
:103B300001F040F85A4A59F804301168EC680B4318
:103B4000136051686B6895F921B00B43536091681D
:103B5000AB6895F822800B4393600023C4F8C83FFC
:103B60002B690BEBCA021A6095F823305FFA88FCC8
:103B700001939DF80430604619462A7DCDF80CC0AB
:103B8000029300F09BF9029BDDF80CC019466046D9
:103B9000082200F089F94FFA88F842494FEA0838BC
:103BA0009DF9042058F80100012303FA02F20243B0
:103BB00048F801204FEA0A3A5AF8010003FA0BF2DA
:103BC00002434AF801205022A263A26B95F8240018
:103BD00042F4D062A263022262634FF44072226315
:103BE000AA696262EA69A2627022E26242B2002AB3
:103BF0000C4614DB95F925102B4D41EAC2012960D2
:103C00007979120315594FB2BB402B43135100224F
:103C100000F04AF9254A136843F4004313602C234B
:103C200003FB069393F8265020336FB2002F1CDB62
:103C300093F807A0EDB25FFA8AF8284641460122C0
:103C40003F0300F03BF94FFA8AFA3A59012303FA8D
:103C50000AF313433B5108222846414600F024F959
:103C6000124A136843F4804313602C2303FB069627
:103C7000F268136B43F00103136396F828300122B6
:103C8000590903F01F0302FA03F3094A42F82130ED
:103C900005B0BDE8F08F00BF78232100753A200001
:103CA00028200D4020940D4004410D4030D00040AC
:103CB00000E100E001289CBF014B43F82010704751
:103CC00050150020012808D8044B2C2202FB00309C
:103CD000C3689A699206FCD4196070477823210062
:103CE000014B00221A60704700500D40014B082222
:103CF0001A60704700500D40024BA0221A605022FB
:103D00001A60704700500D40014B024A9A6070479C
:103D100000ED00E000002000024B1868C0F3815065
:103D2000704700BF04200D4008B5FFF7F5FF024BB8
:103D300053F8200008BD00BFD023210038B5164D30
:103D4000164C2B68032023F040032B6023680621C8
:103D500023F040032360012200F0A6F82B68012223
:103D600023F080032B602368032023F0800323606B
:103D7000072100F099F80A4A0A4B1A600A4B0B4ACD
:103D800019680A40002AF9D11A685101FCD41A684E
:103D90005201FCD538BD00BF20C40D4000C40D4009
:103DA0000101020000200D4004200D40000001012F
:103DB000014B08221A60704774200D40034B0448E1
:103DC0001B6803F007031841704700BF04200D4033
:103DD0000048E801034B04481B68C3F30223184161
:103DE000704700BF04200D400048E801024B02EB81
:103DF000C10243F82200704758150020F8B5074665
:103E00000E46094D002405EB411547FA04F3DB0784
:103E1000E1B204D555F824300BB13046984701344F
:103E2000082CF2D1F8BD00BF581500202DE9F0474D
:103E300080464FEA0837DFF8409007F1804505F5E6
:103E4000592500F045FED5F8186457F809404FEAA7
:103E5000C80A24FA0AF446EA0400E4B2C0B24146B1
:103E6000F6B204FA0AF4FFF7C9FFC5F81C6447F874
:103E70000940BDE8F08700BF18970D4002480021B7
:103E800080220BF0D9BD00BF58150020034A044B17
:103E90001A60044B803A1A60704700BF80400D40A2
:103EA000DC150020D8150020034B01EBC0011B6876
:103EB00043F82120704700BFDC150020034B01EBC5
:103EC000C0011B6843F82120704700BFD8150020AF
:103ED000024A136843F030031360704700700D40CE
:103EE0000E2870B50BD1164B164E1C6844F0020517
:103EF0001D60356825F03F0343F001033360124E27
:103F0000336823F0FF031A431143014331600F4B21
:103F10001B681B06FBD50E4B0E4A1B6812680E2849
:103F200003F0FC0343EA022308BF064A9BB204BF26
:103F30001560034A9BB208BF146018B270BD00BF81
:103F400034000144F486084008700D4000700D40B4
:103F50000C700D4010700D40024B1868B0FA80F0E4
:103F60004009704700B7084010B5074B4FF40042B6
:103F7000064CC3F89021C3F89020206818B102F0D5
:103F80004FFD0023236010BD00E100E0E01500209C
:103F9000064A136843F002031360536843F00203B8
:103FA0005360936843F002039360704748200D40CC
:103FB00007B50C4800F0FEFDFFF7EAFF0A4B1A6850
:103FC00042F002021A6000220192019A0F2A02DCDA
:103FD000019A0132F8E71A6822F002021A6003B06F
:103FE0005DF804FB593F200054200D40064A136839
:103FF00023F002031360536823F0020353609368B5
:1040000023F002039360704748200D401A4B93F948
:104010000020002A09DB194AED2111601160E3211B
:1040200011601A7862F07F021A70154B01201A682D
:10403000A3F57C7342F00802C3F8F023114A106024
:10404000D3F8F02342F00402C3F8F0230E4A1860BC
:10405000136843F0040313600C4B6A221860A3F545
:10406000A723643B1A6068225A60094B80221A60B9
:1040700081225A60704700BF4133002038880840D1
:1040800000B40D4020B00D4000C40D4010C00D40E4
:104090001C0001440B4B1A689207FBD41B685B069B
:1040A0005FBF094BED221A601A60084B1B6813B101
:1040B000054BEF221A60064A0120137803F07F03B4
:1040C000137070474C860840388808402C8608409A
:1040D0004133002038B5A0F10B04E3B20F2B0546A5
:1040E00013D80B4B1B6813F03F0302D0FFF7D2FF2E
:1040F000012304EB8404074A0B3414600BB1FFF76F
:1041000085FF054BE8B21D7000E0FF2040B238BDCE
:10411000488608403C860840C50B002010B50B4B74
:104120001B68990603D1FFF771FF012300E000230C
:10413000074A1268D207FBD5064A1468C4F3001474
:104140000BB1FFF7A7FF204610BD00BF488608400F
:10415000648608404C860840044B186800F0220032
:10416000A0F1200358425841704700BF4C860840D8
:10417000024B186800F04000704700BF4C860840B2
:1041800038B50C46002900F09B80112800F29A8077
:10419000DFE800F0090F1A1C2339425358776E727A
:1041A00098988B8D8F92484B1B68003318BF012362
:1041B00083E0464B05221B6803F07F030B3B93FB18
:1041C000F2F30B33DBB278E0414B00E0414B1A686D
:1041D000043B1B6843EA02236FE000230B603E4B65
:1041E0003E4A1B6803F001030B601268920644BF4D
:1041F00043F002030B603A4B1B78002B5ED00B6838
:1042000043F0040359E0374B00201B780860002B73
:1042100054D001230B6038BD334B1A680023D2B24F
:10422000324901EBC3000079904202D851F8333093
:1042300043E001330E2BF3D13BE02D4B1B685BB207
:10424000493B3AE02B4B1B689D0603D1FFF7DEFE8E
:10425000012300E00023284A1268D007FBD5274A33
:104260001568493DEDB20BB1FFF714FF6DB21AE0CE
:10427000234B93F9003020E0224B1B7803F07F039F
:104280000B601C4B1B68990603D1FFF7BFFE01238F
:1042900000E00023184A1268D207FBD51A4A1568B5
:1042A0000BB1FFF7F7FE256008E00B2305E01A23AA
:1042B00003E06FF0170300E007232360002038BD00
:1042C000022038BD012038BD2C8608403C860840BD
:1042D000CC850840D48508400086084024860840E4
:1042E00040330020C40B002040860840E02321001A
:1042F0005886084048860840648608406086084022
:104300003F3300203E3300209C86084038B50546E8
:104310000C46134B1B689B07FBD4124B93F90030E0
:10432000002B01DBFFF772FE0F4BEE221A60691EB5
:104330001A60A21C43F8102C2144022000F056FB06
:10434000013C0A4924012143022000F061FB0220C4
:1043500000F068FB022000F07DFB002038BD00BFAC
:104360004C860840413300203888084002C001C014
:10437000F8B5214B93F90030002B0DDBFFF722FB42
:104380000446FFF743FEFFF71DFB6FF009031B1BFD
:10439000C342F8D4012600E00026184B1B7823B94D
:1043A000174D2B68990604D405E0FFF7B7FE0028E7
:1043B000F6D10220F8BD134CE923236004272B68B3
:1043C0009A0707D4013F17F0FF0703D00620FFF735
:1043D000D5FAF4E72B689B0704D4EE23236023600F
:1043E000012403E02C6814F00204FBD10EB1FFF7A6
:1043F00051FE2046F8BD00BF41330020C40B002011
:104400004C86084038880840044B1A6810B142F0C6
:10441000010201E022F001021A60704700860840A4
:104420000C280DD1082A0DD161B1074B083111F8C4
:10443000012D43F8042F054A9342F8D1002070471C
:104440000120704702207047A4850840C4850840B9
:10445000F8B5344E336813F0400308D0324D2B6862
:104460001F06DCB205D5314BED221A601A60002020
:10447000F8BD042CF7D9023C8C42F4DCE4B2032CE6
:1044800021D001190139032000F0B8FA631E284930
:104490001B010320194300F0BBFA032000F0C2FA0D
:1044A000032000F0D7FA032000F0E0FA0028FAD148
:1044B0002968204F4939C9B239702B681E4D18063A
:1044C0002B70D0D506E02B6803702B6843702B68E7
:1044D0008370EDE749B289B2042008F061FA2978C7
:1044E00097F90020154B032001F07F011A6008F0B6
:1044F00057FA2B78124A03F07F031360114B1B7895
:1045000073B933685A060BD5064B1B681B0603D5D7
:104510000D4802F085FA03E0044BED221A601A60A0
:104520002046F8BD4C860840288808403888084056
:1045300002C0010C3F3300203E330020343E0020F7
:10454000303E0020403300200C0800200C282DE9CC
:10455000F84F8A4611D1082A40F0828000297FD086
:10456000414B01F1FF3A53F8042D0AF8012F3F4A5D
:104570009342F8D10020BDE8F88F0D286DD1042AB0
:104580006ED100296CD03A493A480B68DFF8EC90BC
:1045900023F007030B600368DFF8E4B043F008037F
:1045A0000360DBF80040D9F800200B68DFF8D4C0C6
:1045B000DFF8D48023F070030B60D8F80050DCF8EB
:1045C0000030E4B2120244EA036392B2DFF8BCE0C6
:1045D0001A43EBB242EA03430024DEF8002044EA27
:1045E00003060B68D5B223F0070343F001030B6009
:1045F00003682F4643F008030360DBF80000D9F896
:1046000000200B68120223F0700343F010030B60CC
:10461000D8F80050DCF80030C1B241EA036392B22E
:104620001A43EBB242EA0343DEF8002044EA0308EF
:104630005FFA82F9FFF7C6F9B6EB080667EB0907E0
:10464000F903054641EA5641F0030B4A00230AF0FC
:10465000C1FD281ACAF800008CE70120BDE8F88FD8
:104660000220BDE8F88F00BFC8850840A885084033
:1046700010880840048808400048E801188808406D
:104680001488084020880840248808401C88084076
:10469000214B1870002834D0204B1B681B03FBD51E
:1046A0001F4B1A6842F002021A601A6842F00102B7
:1046B0001A601A681A495007FBD50A6822F00102ED
:1046C0000A601968164A4907FBD4116841F00201D3
:1046D0001160116841F0010111601A685207FCD5A0
:1046E000104A136823F004031360D2F8A83123F0B2
:1046F0000403C2F8A8310C4B4FF40052C3F89020C9
:104700007047084A136843F004031360064B4FF4E4
:1047100000521A61704700BF4033002004200D4052
:10472000048808408C86084000E100E010B50C4683
:1047300007285CD8DFE800F0040F1B1F263C425618
:10474000012903D1FFF762FC002010BD002950D1E0
:10475000FFF7A0FCF8E7A1F10B030F2B49D8C8B273
:10476000FFF7B8FC431C0CBF0320002010BD8CB227
:10477000E2B2214B02E08CB2204BE2B2240A1A6072
:104780005C60E1E731F0070333D101F00100FFF78E
:104790003BFE1B4B14F0020F1A68C4F3800014BFD9
:1047A00042F0200222F020021A60FFF771FFCBE7EF
:1047B00031F001001DD1134B197010BD01F1180328
:1047C0001F2B16D80D231049DA0051F8330084420C
:1047D00004DC8B181A790D4B1A60B5E713F1FF331F
:1047E000F1D2B1E7CCB20A4B49341C60ACE70120EE
:1047F00010BD022010BD00BFC8850840D08508400C
:1048000024860840C40B0020E02321004086084095
:1048100058860840F8B5294F3D7815F001054BD171
:10482000274B01241C605C609C60A3F59323A3F5D7
:104830001473F8221A600922C3F8902115227033EC
:104840001A6003F59B230B2203F59E731A60A3F5F0
:104850009B23A3F5F07340221A601A687F2642F06A
:1048600020021A60D52243F81C5CDE62DA61154B27
:104870001878FFF72FFC144B4FF480421E60134B47
:1048800002201A6100F0DAF81149022000F0B6F8AF
:10489000032000F0D3F80E49032000F0A7F80D4BD9
:1048A0001878FFF7F5FE0C48294602F0A1F83B788E
:1048B000204623433B70F8BD0020F8BD4133002063
:1048C000A8200D40C50B00209486084000E100E0C0
:1048D00028880840403300200C08002038B50388A1
:1048E0000446CBB140F23F42934203D00023038001
:1048F000032038BD194B18781A4628B11B7873B1BC
:10490000174B1B7858060AD5822908D1137843B172
:10491000134B1A78520614D440F23F4323800120EF
:1049200038BD07F0E7FF07F07BFF8021FFF790FD20
:104930000028EDDD80B207F057FF0A4B1B6998474E
:10494000E6E700221A70084B1D68FFF7A3FBFFF78C
:1049500061FFAB06E0D0FFF759FBDDE740330020F5
:1049600041330020E42421004886084008B5054B67
:104970001B7813B9044802F053F8044B00221A6064
:1049800008BD00BF403300200C08002034880840D8
:10499000064B07481A68042A1FBF06490A7842F0E6
:1049A00040020A7000221A6002F03AB82C880840CF
:1049B0000C0800204133002010B5094C402220464D
:1049C00000210BF039F8074B01221A605C60064B9E
:1049D0004FF480425A604FF400425A6010BD00BF4D
:1049E0000000002004F00F4000E100E003289EBF1B
:1049F000014B0001195070470000002003289EBFA2
:104A0000024B03EB00104160704700BF0000002024
:104A100003289EBF024B03EB00108160704700BF6C
:104A20000000002003289FBF034901230A68834038
:104A30009CBF13430B60704728F00F4003289FBFB3
:104A4000034901230A6883409CBF13430B607047EE
:104A500020F00F4003289FBF034901230A688340C9
:104A60009CBF13430B60704714F00F4003289FBF97
:104A7000044B03EB0010806800F0070088BF0020A3
:104A8000704700BF00000020024B4FF0FF321A6059
:104A9000704700BF04F50F40014B01221A607047B8
:104AA0004CF00F40094B1A6812F4801F1A46F9D1D6
:104AB000043B196821F4803119601168C903FCD4E2
:104AC0001A6842F400321A60704700BF04200D409B
:104AD00010B50A4B1A681C4612F0030F0CD0084B95
:104AE0001A685101FBD41A685201FCD5FEF754FF35
:104AF000FFF7D8FF0023236010BD00BF58200D40F2
:104B000004200D4038B5254B1C6814F03F0413D128
:104B1000234B53F8243023B1984768B10134052C56
:104B2000F6D1204D2B783BB1FEF746FF0446FEF749
:104B300049FF201A092801D830BF38BD002CFBD00E
:104B4000194B1A6822F400321A60184A1168C90217
:104B5000FBD4196841F4803119601368DB03FCD57C
:104B6000FEF730FF201A092803D8BDE83840FFF7C8
:104B700099BF63280E4C02D92B78022B00D0012359
:104B8000236001F003FF20B1FFF78CFF00232360B7
:104B900038BDFEF711FF0028CED1F5E74886084062
:104BA000E41500204233002000200D4004200D4079
:104BB00058200D400023064A52F82310814206D0A7
:104BC00011B942F8230070470133052BF3D1704728
:104BD000E4150020054B00221A60054A136943F0D2
:104BE00004031361034B01221A70704758200D40D3
:104BF00000ED00E04233002010B5074B4FF4803247
:104C0000064CC3F89021C3F89020206818B101F039
:104C100007FF0023236010BD00E100E0F81500202D
:104C200030B5184B1A78431E3AB9174A1278122A2F
:104C300003D1164A12784B2A03D001F520112731EF
:104C400017E04A0802F12814B4F1281F04D014F820
:104C5000015D03F8015FF7E701F52011273100231B
:104C6000934205DA11F801598418E5540133F7E746
:104C700030BD074A914204D011F8012903F8012FF1
:104C8000F7E730BD2B0028002A0028002900280063
:104C900027002800024A136843F01003136070478E
:104CA0002000024014235843034B044A0344B3FB3F
:104CB000F0F3013B13607047FF23F4000C00024047
:104CC0002DE9F84307460E4615461C462A4ADFF8EA
:104CD000B4901368DDF8208043F001031360D9F825
:104CE0000030322043F00103C9F80030FEF746FEE1
:104CF000D9F80030214A23F00103C9F80030380305
:104D00008158012303FA06FE21EA0E01815029038E
:104D100051F802C0A3402CEA030C41F802C0203233
:104D200050F802C04CEA0E0E40F802E088580343E7
:104D30008B50384631460022FFF7B6F82846214608
:104D40000022FFF7B1F80E4B46EAC7021A6044EAA8
:104D5000C5025A60384631460B22FFF7AFF82846A5
:104D600021460C22FFF7AAF8FFF794FF4046BDE862
:104D7000F843FFF797BF00BF38200D4000940D4067
:104D80002C410D4044200D40024B18600120FEF7DD
:104D9000F5BD00BF04000240054B1868C0B2C30750
:104DA00004D410F0120F08BF002070470020704795
:104DB0000400024008B5074B4000186099600720C6
:104DC000FFF7E2FF044B1B68DB07FBD4BDE808409C
:104DD000FFF7E2BF000002400400024040000A4B1F
:104DE00040F0010010B5186007200C46FFF7CCFF1B
:104DF000064B1B68DB07FBD4FFF7CEFF10B9044B53
:104E00001B68237010BD00BF000002400400024078
:104E1000080002402DE9F0410F461446002A39D01F
:104E2000002937D0012A04D1BDE8F0410978FFF705
:104E3000C1BF1A4A430013600B78194D03202B6041
:104E4000FFF7A2FFA846174E3368D907FBD4FFF738
:104E5000A3FF18B1BDE8F041FFF79EBF0125631E17
:104E6000AB420BDD7B5D0120C8F80030FFF78CFF03
:104E70003368DA07FCD40135EDB2F0E73C4414F8AE
:104E8000013C0520C8F80030FFF77EFF3368DB07E0
:104E9000FCD4DFE78020BDE8F08100BF00000240C5
:104EA00008000240040002402DE9F0410F4614467C
:104EB000002A3AD0002938D0012A03D1BDE8F041B8
:104EC000FFF78CBF43001A4A43F0010313600B2025
:104ED000FFF75AFF174B1A68984612F0010FF9D1E5
:104EE000FFF75AFFE8B9144E012533683B70631E83
:104EF000AB420BDD0920FFF747FFD8F80030DA0797
:104F0000FBD433687B550135EDB2F0E70520FFF7A0
:104F10003BFFD8F80030DB07FBD433683C4404F88F
:104F2000013CBDE8F041FFF737BF8020BDE8F081CC
:104F3000000002400400024008000240074B002924
:104F40004FEA003014BF042200220344985810F0A6
:104F500008001CBF9858C0F340007047040003408D
:104F600038B50024E5B228460021FFF7E7FF30B14D
:104F70000B4B22039B58DA0701D5002038BD284689
:104F80000121FFF7DBFF20B90134042CEAD1012015
:104F900038BD034B22039B58DB05F5D5EDE700BF79
:104FA0000C0003402DE9F0411D462F4B013898427B
:104FB0000F46904653D8642951D8032A4FD80DB9CB
:104FC000002A4CD04FEA083404F1804404F5403400
:104FD0002648FFF7EFFDE368012D254814BF6FF069
:104FE00041056FF482454FF0010105EA03050368AE
:104FF00001FA08F243EA02031E4903600B684FF00E
:10500000000043EA02030B604B6818BF002642EA27
:10501000030223464A604FF00402E06008BF042602
:1050200043F8042B98519A5918BF4FF0400E42F0A4
:1050300008029A519A5908BF4FF4804E42F002027A
:105040009A5137B9E36838464EEA03031D43E560D9
:1050500006E0E2684EEA02031D43E56000E0FF203F
:1050600040B2BDE8F08100BFFF700200614F200038
:1050700008200D400C200D40F7B51646164A0C4688
:10508000411E9142074624D8642C22D8032E20D8F2
:10509000012B14BF00250425FEF790FEB0FBF7F0AE
:1050A000444364210134B4FBF1F405EB063283B2CE
:1050B00002F1804202F54032013B9362A3B2013B10
:1050C0001363C4F30744C0F307439363C0B214648B
:1050D00000E0FF2003B0F0BDFF7002002DE9F041B9
:1050E00001290546884614461F469DF8186001D9D7
:1050F000FF2039E00328FBD8FFF720FF0028F7D076
:10510000022CF5D8072FF3D8012EF1D82A0302F18B
:10511000804202F54032D368B8F1010F14BF6FF03E
:1051200001016FF480710B40D360204639460022A4
:10513000FEF7BAFE22030E4C0121105901FA07F3C3
:1051400020EA03010B48115111581943115002F183
:10515000804202F5592226B1FF2142F82310002097
:1051600002E0304642F8236040B2BDE8F08100BF63
:1051700020940D4000940D400129F8B504460E46D8
:1051800015461F4601D9FF202FE00328FBD8FFF763
:10519000D5FE0028F7D0022DF5D8072FF3D86300ED
:1051A000012E03F10D0208BF03F10E022846394615
:1051B000D2B2FEF783FE284639460822FEF774FE77
:1051C0000B4A2D03A9580123BB4020030B4300F1D8
:1051D0008040AB5000F54030C368012E0CBF4FF447
:1051E000807201221343C360002040B2F8BD00BFAB
:1051F00020940D4001292DE9F74380468946164643
:105200001F4602D003D9FF2032E0042400E000242E
:10521000B8F1030FF7D8022EF5D8072FF3D8404680
:105220004946FFF78BFE0028EDD00025324649465F
:105230003B4600954046FFF751FF04EB083303F16E
:10524000804303F540335D6030469D6239461D63FF
:105250002A46FEF729FE0123BB40DB4328460649C8
:10526000360372581A407250044AB1580B40B3507A
:1052700040B203B0BDE8F08320940D4000940D408F
:105280000FB407B504AA52F8041B0448019200F0B9
:105290004DF803B05DF804EB04B070471C08002023
:1052A0001FB5084C8DE80300114602A81A46029467
:1052B000CDF80CD000F03AF8009B00221A7004B030
:1052C00010BD00BF6F0921000EB43FB5094B07AAFE
:1052D00052F8041B0190049304A801AB03920593B8
:1052E00000F024F8019B00221A7006B05DF804EB70
:1052F00003B07047B109210070B505460C46102C6B
:1053000007D92B68686808491022984750B9103CA3
:10531000F5E734B12B6868682246BDE87040024961
:105320001847204670BD00BF253521002DE9F04FFC
:1053300080468FB0069107920026069B1B78002BB3
:1053400000F05F83069B1C4613F8012B1AB9069BDD
:105350009C4203D10FE0252AF5D1F8E7069BD8F847
:105360000400E51A0699D8F800302A469847002824
:1053700040F02A832E442378002B00F04283637888
:10538000611C002B00F03D8300240A4611F8013B0C
:105390002B2B11D006D8202B11D0232B12D144F067
:1053A0000804F2E72D2B04D0302B0BD144F010046D
:1053B000EBE744F00104E8E744F00604E5E744F0D5
:1053C0000204E2E7A3F1310108290DD813460025B4
:1053D0001A4613F8011BA1F13000092811D80A223E
:1053E00002FB0515303DF3E72A2B09D1079B01325B
:1053F0001D68191D002D0791B8BF44F0010400E09D
:10540000002513782E2B1CD15178531CA1F13000AC
:1054100009280ED8194600270A780B46A2F1300059
:10542000092801F101010FD80A2303FB0727303FA8
:10543000F2E72A2906D1931C079A111D07911768D4
:1054400002E013464FF0FF371A786C2A09D15A78D8
:105450006C2A02D144F080040AE0013344F0600475
:105460000BE0682A09D15A78682A03D144F0200455
:10547000023302E0013344F040041A78642A3CD03D
:105480001FD8462A48D00DD8252A5AD003D8002A3A
:1054900000F0B78257E0412A4AD0452A53D144F45C
:1054A000424450E0582A31D004D8472A4BD144F422
:1054B000A13448E0612A38D0632A44D144F4A0647E
:1054C00041E06E2A3AD007D8662A22D027D3672A2D
:1054D00028D0692A11D036E0732A2CD006D86F2A3A
:1054E00011D0702A2FD144F440742CE0752A07D0D3
:1054F000782A28D144F4C85425E044F4245422E006
:1055000044F410641FE044F488541CE044F4B244B2
:1055100019E044F4007416E044F4844413E044F4C5
:10552000024410E044F481340DE044F4C1340AE054
:1055300044F4E13407E044F4806404E044F4E064BB
:1055400001E044F4C0640133069304F4E063B3F56E
:10555000806F00F0AA8116D8B3F5807F2BD0B3F509
:10556000407F7FF4EAAE079BA04914F4804F03F11B
:1055700004029F4818BF08460DF1330107920F46F9
:105580001A680023C5E1B3F5C06F08D0B3F5E06F2A
:1055900000F03182B3F5A06F7FF4CFAE00E2D8F80F
:1055A0000030D8F80400934901229847002840F0C1
:1055B0000B820136C1E6002FACBF24F01004012796
:1055C00014F40053039304F0E00337D0402B17D0BA
:1055D00008D8DBB1202B2AD1079B1A1D079293F91B
:1055E000002017E0602B11D0802B20D1079B0733C0
:1055F00023F0070303F108020792D3E900230AE02E
:10560000079B1A1D0792B3F9002003E0079B1A1DA0
:1056100007921A68D317002A73F1000109DA52427F
:1056200063EB4303CDE900234FF0010933E000228F
:105630000023CDE900234FF000092CE0402B16D0C9
:1056400007D8CBB1202B20D1079B1A1D07921A78BF
:10565000EEE7602B10D0802B17D1079B073323F088
:10566000070303F108020792D3E90023E1E7079B50
:105670001A1D07921A88DBE7079B00211A1D079263
:105680001B681846CDE90001D5E700220023CDE9CB
:1056900000234FF0000904F4C053B3F5805F0CD031
:1056A000B3F5C05F33D0B3F5006F4FD1DDE9002310
:1056B0000DF1360ACDE9042304E0DDE900230DF104
:1056C000360A15E0DDE9042313433AD0DDE904018D
:1056D0000A22002309F07EFDDDE9040130320AF8D8
:1056E000012D00230A2209F075FDCDE90401E9E747
:1056F00052EA030125D002F0070130310AF8011DFA
:10570000D10841EA4371D8080A460346F0E7384B0E
:1057100014F4804F0DF1360A344908BF1946DDE90B
:10572000002352EA03000CD002F00F00085C4FEA9D
:10573000131E0AF8010D100940EA03700246734671
:10574000EFE70DF1360BCAEB0B0B03E00DF1360A58
:105750004FF0000B41F6080241F208035F4502EAF0
:1057600004028CBFCBEB070700279A4202D1002F1F
:1057700008BF012741F608018A4207EB0B030DD150
:10578000DDE9000150EA010208D01B4914F4804F02
:105790001A4A4FF0020C18BF0A4602E04FF0000C04
:1057A00062460399A1B1B9F1000F0AD104F00601D4
:1057B00002290AD00629124904BF4FF0010C0A46FB
:1057C00006E04FF0010C0F4A02E00F4A4FF0010CC7
:1057D00063449D428CBFED1A002514F0010922D1CB
:1057E000E30613D52F444D461DE000BFF2342100DF
:1057F0000335210023352100173521001435210000
:105800001A35210043362100E0392100404629465F
:10581000CDF80CC00092FFF76FFD009ADDF80CC0C8
:10582000002840F0D180BCF1000F0DD01146D8F80F
:1058300000306246D8F80400CDF800C09847DDF883
:1058400000C0002840F0C0803C465E44102CD8F8D0
:1058500000300DD9D8F804006C491022CDF800C0F2
:105860009847002840F0B080103CDDF800C0EDE71C
:105870005CB1D8F8040065492246CDF800C09847CD
:10588000DDF800C0002840F09F80D8F80030D8F83C
:10589000040051465A4666449847002840F09480D8
:1058A0003E44B9F1000F79D073E0079BD3F800A014
:1058B0001A1D0792BAF1000F09D05346994699F87C
:1058C00000200133002AF9D1CAEB090903E0DFF80F
:1058D00040A14FF00609002F02DBB94528BFB946A9
:1058E0004D458CBFC9EB0505002514F0010405D119
:1058F00040462946FFF700FD002865D1D8F8003062
:10590000D8F8040051464A46984700285CD14E44D6
:105910003EE052EA030E0ED002F00F0E10F80EE039
:105920004FEA131C01F801ED4FEA121E4EEA037E06
:1059300072466346EDE70B467F1A01BF302201270E
:1059400001F1FF3301F8012C03377822BD4203F83F
:10595000012C4FF0300203F8022C88BFED1B4FF0F2
:10596000230298BF002514F00104A3F1030903F8F2
:10597000032C04D140462946FFF7BEFC20BBD8F8D3
:105980000030D8F8040049463A469847E0B93E440A
:1059900024B140462946FFF7AFFCA8B92E44CCE419
:1059A000079B012D03F104021B688CBF05F1FF3535
:1059B000002514F0010407928DF8203008D14046EC
:1059C0002946FFF799FC10B14FF0FF301AE02E4442
:1059D000D8F80030D8F8040008A901229847002818
:1059E000F2D16F1C2CB140462946FFF785FC0028F8
:1059F000EAD13E44A1E4079B1A1D1B6807921E6072
:105A00009BE430460FB0BDE8F08F00BFE2342100C8
:105A10001C3521002DE9F041884617461E460446F4
:105A200028B93B480AF054FF2046BDE8F0810578CC
:105A30002DB938480AF04CFF2846BDE8F0813649B8
:105A400007220AF057FA00B9073423785B2B19D1E3
:105A500001340023227825465D2A04F1010407D190
:105A6000B8F1000F02D0002208F80320013524E02D
:105A7000B8F1000F01D008F803200133282B254688
:105A8000E8D11AE00023254614F8012B12F0DF0FAD
:105A900006D1B8F1000F10D0002208F803200CE066
:105AA0002F2AF6D03A2AF4D0B8F1000F01D008F826
:105AB00003200133282B2546E5D14046002128222A
:105AC00009F064FE08B32B783A2B0CD1002315F8AB
:105AD000012F303AD1B2092906D803EB830302EB38
